{"abi":[{"type":"constructor","inputs":[],"stateMutability":"nonpayable"},{"type":"function","name":"MINIMUM_LIQUIDITY","inputs":[],"outputs":[{"name":"","type":"uint256","internalType":"uint256"}],"stateMutability":"view"},{"type":"function","name":"allowance","inputs":[{"name":"","type":"address","internalType":"address"},{"name":"","type":"address","internalType":"address"}],"outputs":[{"name":"","type":"uint256","internalType":"uint256"}],"stateMutability":"view"},{"type":"function","name":"approve","inputs":[{"name":"spender","type":"address","internalType":"address"},{"name":"value","type":"uint256","internalType":"uint256"}],"outputs":[{"name":"","type":"bool","internalType":"bool"}],"stateMutability":"nonpayable"},{"type":"function","name":"balanceOf","inputs":[{"name":"","type":"address","internalType":"address"}],"outputs":[{"name":"","type":"uint256","internalType":"uint256"}],"stateMutability":"view"},{"type":"function","name":"burn","inputs":[{"name":"to","type":"address","internalType":"address"}],"outputs":[{"name":"amount0","type":"uint256","internalType":"uint256"},{"name":"amount1","type":"uint256","internalType":"uint256"}],"stateMutability":"nonpayable"},{"type":"function","name":"decimals","inputs":[],"outputs":[{"name":"","type":"uint8","internalType":"uint8"}],"stateMutability":"view"},{"type":"function","name":"factory","inputs":[],"outputs":[{"name":"","type":"address","internalType":"address"}],"stateMutability":"view"},{"type":"function","name":"getReserves","inputs":[],"outputs":[{"name":"_reserve0","type":"uint112","internalType":"uint112"},{"name":"_reserve1","type":"uint112","internalType":"uint112"}],"stateMutability":"view"},{"type":"function","name":"initialize","inputs":[{"name":"_token0","type":"address","internalType":"address"},{"name":"_token1","type":"address","internalType":"address"}],"outputs":[],"stateMutability":"nonpayable"},{"type":"function","name":"mint","inputs":[{"name":"to","type":"address","internalType":"address"}],"outputs":[{"name":"liquidity","type":"uint256","internalType":"uint256"}],"stateMutability":"nonpayable"},{"type":"function","name":"name","inputs":[],"outputs":[{"name":"","type":"string","internalType":"string"}],"stateMutability":"view"},{"type":"function","name":"swap","inputs":[{"name":"amount0Out","type":"uint256","internalType":"uint256"},{"name":"amount1Out","type":"uint256","internalType":"uint256"},{"name":"to","type":"address","internalType":"address"}],"outputs":[],"stateMutability":"nonpayable"},{"type":"function","name":"symbol","inputs":[],"outputs":[{"name":"","type":"string","internalType":"string"}],"stateMutability":"view"},{"type":"function","name":"token0","inputs":[],"outputs":[{"name":"","type":"address","internalType":"address"}],"stateMutability":"view"},{"type":"function","name":"token1","inputs":[],"outputs":[{"name":"","type":"address","internalType":"address"}],"stateMutability":"view"},{"type":"function","name":"totalSupply","inputs":[],"outputs":[{"name":"","type":"uint256","internalType":"uint256"}],"stateMutability":"view"},{"type":"function","name":"transfer","inputs":[{"name":"to","type":"address","internalType":"address"},{"name":"value","type":"uint256","internalType":"uint256"}],"outputs":[{"name":"","type":"bool","internalType":"bool"}],"stateMutability":"nonpayable"},{"type":"function","name":"transferFrom","inputs":[{"name":"from","type":"address","internalType":"address"},{"name":"to","type":"address","internalType":"address"},{"name":"value","type":"uint256","internalType":"uint256"}],"outputs":[{"name":"","type":"bool","internalType":"bool"}],"stateMutability":"nonpayable"},{"type":"event","name":"Approval","inputs":[{"name":"owner","type":"address","indexed":true,"internalType":"address"},{"name":"spender","type":"address","indexed":true,"internalType":"address"},{"name":"value","type":"uint256","indexed":false,"internalType":"uint256"}],"anonymous":false},{"type":"event","name":"Burn","inputs":[{"name":"sender","type":"address","indexed":true,"internalType":"address"},{"name":"amount0","type":"uint256","indexed":false,"internalType":"uint256"},{"name":"amount1","type":"uint256","indexed":false,"internalType":"uint256"},{"name":"to","type":"address","indexed":true,"internalType":"address"}],"anonymous":false},{"type":"event","name":"Mint","inputs":[{"name":"sender","type":"address","indexed":true,"internalType":"address"},{"name":"amount0","type":"uint256","indexed":false,"internalType":"uint256"},{"name":"amount1","type":"uint256","indexed":false,"internalType":"uint256"}],"anonymous":false},{"type":"event","name":"Swap","inputs":[{"name":"sender","type":"address","indexed":true,"internalType":"address"},{"name":"amount0In","type":"uint256","indexed":false,"internalType":"uint256"},{"name":"amount1In","type":"uint256","indexed":false,"internalType":"uint256"},{"name":"amount0Out","type":"uint256","indexed":false,"internalType":"uint256"},{"name":"amount1Out","type":"uint256","indexed":false,"internalType":"uint256"},{"name":"to","type":"address","indexed":true,"internalType":"address"}],"anonymous":false},{"type":"event","name":"Sync","inputs":[{"name":"reserve0","type":"uint112","indexed":false,"internalType":"uint112"},{"name":"reserve1","type":"uint112","indexed":false,"internalType":"uint112"}],"anonymous":false},{"type":"event","name":"Transfer","inputs":[{"name":"from","type":"address","indexed":true,"internalType":"address"},{"name":"to","type":"address","indexed":true,"internalType":"address"},{"name":"value","type":"uint256","indexed":false,"internalType":"uint256"}],"anonymous":false}],"bytecode":{"object":"0x60c06040526001600855348015610014575f5ffd5b50604051806040016040528060128152602001710526f62696e686f6f6420436861696e204c560741b81525060405180604001604052806005815260200164052482d4c560dc1b8152506012825f908161006e9190610125565b50600161007b8382610125565b5060ff1660805250503360a0526101df565b634e487b7160e01b5f52604160045260245ffd5b600181811c908216806100b557607f821691505b6020821081036100d357634e487b7160e01b5f52602260045260245ffd5b50919050565b601f82111561012057805f5260205f20601f840160051c810160208510156100fe5750805b601f840160051c820191505b8181101561011d575f815560010161010a565b50505b505050565b81516001600160401b0381111561013e5761013e61008d565b6101528161014c84546100a1565b846100d9565b6020601f821160018114610184575f831561016d5750848201515b5f19600385901b1c1916600184901b17845561011d565b5f84815260208120601f198516915b828110156101b35787850151825560209485019460019092019101610193565b50848210156101d057868401515f19600387901b60f8161c191681555b50505050600190811b01905550565b60805160a0516118846102075f395f81816102b901526104d101525f6101da01526118845ff3fe608060405234801561000f575f5ffd5b5060043610610111575f3560e01c80636d9a640a1161009e578063a9059cbb1161006e578063a9059cbb14610298578063ba9a7a56146102ab578063c45a0155146102b4578063d21220a7146102db578063dd62ed3e146102ee575f5ffd5b80636d9a640a1461023657806370a082311461024957806389afcb441461026857806395d89b4114610290575f5ffd5b806318160ddd116100e457806318160ddd146101ab57806323b872dd146101c2578063313ce567146101d5578063485cc9551461020e5780636a62784214610223575f5ffd5b806306fdde03146101155780630902f1ac14610133578063095ea7b31461015d5780630dfe168114610180575b5f5ffd5b61011d610318565b60405161012a9190611620565b60405180910390f35b600754604080516001600160701b038084168252600160701b90930490921660208301520161012a565b61017061016b36600461166b565b6103a3565b604051901515815260200161012a565b600554610193906001600160a01b031681565b6040516001600160a01b03909116815260200161012a565b6101b460025481565b60405190815260200161012a565b6101706101d0366004611693565b61040f565b6101fc7f000000000000000000000000000000000000000000000000000000000000000081565b60405160ff909116815260200161012a565b61022161021c3660046116cd565b6104c6565b005b6101b46102313660046116fe565b6105ab565b61022161024436600461171e565b61084b565b6101b46102573660046116fe565b60036020525f908152604090205481565b61027b6102763660046116fe565b610e01565b6040805192835260208301919091520161012a565b61011d611250565b6101706102a636600461166b565b61125d565b6101b46103e881565b6101937f000000000000000000000000000000000000000000000000000000000000000081565b600654610193906001600160a01b031681565b6101b46102fc3660046116cd565b600460209081525f928352604080842090915290825290205481565b5f805461032490611750565b80601f016020809104026020016040519081016040528092919081815260200182805461035090611750565b801561039b5780601f106103725761010080835404028352916020019161039b565b820191905f5260205f20905b81548152906001019060200180831161037e57829003601f168201915b505050505081565b335f8181526004602090815260408083206001600160a01b038716808552925280832085905551919290917f8c5be1e5ebec7d5bd14f71427d1e84f3dd0314c0f7b2291e5b200ac8c7c3b925906103fd9086815260200190565b60405180910390a35060015b92915050565b6001600160a01b0383165f9081526004602090815260408083203384529091528120545f1981146104b057828110156104825760405162461bcd60e51b815260206004820152601060248201526f45524332303a20616c6c6f77616e636560801b60448201526064015b60405180910390fd5b61048c8382611796565b6001600160a01b0386165f9081526004602090815260408083203384529091529020555b6104bb858585611272565b506001949350505050565b336001600160a01b037f000000000000000000000000000000000000000000000000000000000000000016146105305760405162461bcd60e51b815260206004820152600f60248201526e2830b4b91d103337b93134b23232b760891b6044820152606401610479565b6005546001600160a01b03161561057d5760405162461bcd60e51b815260206004820152601160248201527014185a5c8e881a5b9a5d1a585b1a5e9959607a1b6044820152606401610479565b600580546001600160a01b039384166001600160a01b03199182161790915560068054929093169116179055565b5f6008546001146105ce5760405162461bcd60e51b8152600401610479906117a9565b5f6008819055600754600554604080516370a0823160e01b815230600482015290516001600160701b0380851695600160701b9095041693926001600160a01b0316916370a082319160248083019260209291908290030181865afa158015610639573d5f5f3e3d5ffd5b505050506040513d601f19601f8201168201806040525081019061065d91906117cf565b6006546040516370a0823160e01b81523060048201529192505f916001600160a01b03909116906370a0823190602401602060405180830381865afa1580156106a8573d5f5f3e3d5ffd5b505050506040513d601f19601f820116820180604052508101906106cc91906117cf565b90505f6106e26001600160701b03861684611796565b90505f6106f86001600160701b03861684611796565b6002549091505f819003610739576103e861071b61071684866117e6565b61137f565b6107259190611796565b975061073460016103e86113ed565b61078f565b5f6001600160701b03881661074e83866117e6565b61075891906117fd565b90505f6001600160701b03881661076f84866117e6565b61077991906117fd565b9050808210610788578061078a565b815b995050505b5f88116107ea5760405162461bcd60e51b815260206004820152602360248201527f506169723a20696e73756666696369656e74206c6971756964697479206d696e6044820152621d195960ea1b6064820152608401610479565b6107f489896113ed565b6107fe858561149f565b604080518481526020810184905233917f4c209b5fc8ad50758f13e2e1088ba56a560dff690a1c6fef26394f4c03821c4f910160405180910390a250506001600855509395945050505050565b60085460011461086d5760405162461bcd60e51b8152600401610479906117a9565b5f6008558215158061087e57505f82115b6108ca5760405162461bcd60e51b815260206004820152601960248201527f506169723a20696e73756666696369656e74206f7574707574000000000000006044820152606401610479565b5f5f6108ea6007546001600160701b0380821692600160701b9092041690565b91509150816001600160701b03168510801561090e5750806001600160701b031684105b61095a5760405162461bcd60e51b815260206004820152601c60248201527f506169723a20696e73756666696369656e74206c6971756964697479000000006044820152606401610479565b6005546001600160a01b0384811691161480159061098657506006546001600160a01b03848116911614155b6109c55760405162461bcd60e51b815260206004820152601060248201526f506169723a20696e76616c696420746f60801b6044820152606401610479565b8415610a7b5760055460405163a9059cbb60e01b81526001600160a01b038581166004830152602482018890529091169063a9059cbb906044016020604051808303815f875af1158015610a1b573d5f5f3e3d5ffd5b505050506040513d601f19601f82011682018060405250810190610a3f919061181c565b610a7b5760405162461bcd60e51b815260206004820152600d60248201526c14185a5c8e881d0c0819985a5b609a1b6044820152606401610479565b8315610b315760065460405163a9059cbb60e01b81526001600160a01b038581166004830152602482018790529091169063a9059cbb906044016020604051808303815f875af1158015610ad1573d5f5f3e3d5ffd5b505050506040513d601f19601f82011682018060405250810190610af5919061181c565b610b315760405162461bcd60e51b815260206004820152600d60248201526c14185a5c8e881d0c4819985a5b609a1b6044820152606401610479565b6005546040516370a0823160e01b81523060048201525f916001600160a01b0316906370a0823190602401602060405180830381865afa158015610b77573d5f5f3e3d5ffd5b505050506040513d601f19601f82011682018060405250810190610b9b91906117cf565b6006546040516370a0823160e01b81523060048201529192505f916001600160a01b03909116906370a0823190602401602060405180830381865afa158015610be6573d5f5f3e3d5ffd5b505050506040513d601f19601f82011682018060405250810190610c0a91906117cf565b90505f610c20886001600160701b038716611796565b8311610c2c575f610c49565b610c3f886001600160701b038716611796565b610c499084611796565b90505f610c5f886001600160701b038716611796565b8311610c6b575f610c88565b610c7e886001600160701b038716611796565b610c889084611796565b90505f821180610c9757505f81115b610ce35760405162461bcd60e51b815260206004820152601860248201527f506169723a20696e73756666696369656e7420696e70757400000000000000006044820152606401610479565b5f610cef8360036117e6565b610cfb866103e86117e6565b610d059190611796565b90505f610d138360036117e6565b610d1f866103e86117e6565b610d299190611796565b9050610d416001600160701b03808916908a166117e6565b610d4e90620f42406117e6565b610d5882846117e6565b1015610d905760405162461bcd60e51b8152602060048201526007602482015266506169723a204b60c81b6044820152606401610479565b610d9a868661149f565b60408051858152602081018590529081018c9052606081018b90526001600160a01b038a169033907fd78ad95fa46c994b6551d0da85fc275fe613ce37657fb8d5e3d130840159d8229060800160405180910390a350506001600855505050505050505050565b5f5f600854600114610e255760405162461bcd60e51b8152600401610479906117a9565b5f60088190556005546040516370a0823160e01b81523060048201526001600160a01b03909116906370a0823190602401602060405180830381865afa158015610e71573d5f5f3e3d5ffd5b505050506040513d601f19601f82011682018060405250810190610e9591906117cf565b6006546040516370a0823160e01b81523060048201529192505f916001600160a01b03909116906370a0823190602401602060405180830381865afa158015610ee0573d5f5f3e3d5ffd5b505050506040513d601f19601f82011682018060405250810190610f0491906117cf565b305f908152600360205260409020546002549192509080610f2585846117e6565b610f2f91906117fd565b955080610f3c84846117e6565b610f4691906117fd565b94505f86118015610f5657505f85115b610fae5760405162461bcd60e51b815260206004820152602360248201527f506169723a20696e73756666696369656e74206c6971756964697479206275726044820152621b995960ea1b6064820152608401610479565b610fb8308361156b565b60055460405163a9059cbb60e01b81526001600160a01b038981166004830152602482018990529091169063a9059cbb906044016020604051808303815f875af1158015611008573d5f5f3e3d5ffd5b505050506040513d601f19601f8201168201806040525081019061102c919061181c565b6110685760405162461bcd60e51b815260206004820152600d60248201526c14185a5c8e881d0c0819985a5b609a1b6044820152606401610479565b60065460405163a9059cbb60e01b81526001600160a01b038981166004830152602482018890529091169063a9059cbb906044016020604051808303815f875af11580156110b8573d5f5f3e3d5ffd5b505050506040513d601f19601f820116820180604052508101906110dc919061181c565b6111185760405162461bcd60e51b815260206004820152600d60248201526c14185a5c8e881d0c4819985a5b609a1b6044820152606401610479565b6005546040516370a0823160e01b81523060048201526001600160a01b03909116906370a0823190602401602060405180830381865afa15801561115e573d5f5f3e3d5ffd5b505050506040513d601f19601f8201168201806040525081019061118291906117cf565b6006546040516370a0823160e01b81523060048201529195506001600160a01b0316906370a0823190602401602060405180830381865afa1580156111c9573d5f5f3e3d5ffd5b505050506040513d601f19601f820116820180604052508101906111ed91906117cf565b92506111f9848461149f565b60408051878152602081018790526001600160a01b0389169133917fdccd412f0b1252819cb1fd330b93224ca42612892bb3f4f789976e6d81936496910160405180910390a3505050506001600881905550915091565b6001805461032490611750565b5f611269338484611272565b50600192915050565b6001600160a01b0382166112b95760405162461bcd60e51b815260206004820152600e60248201526d45524332303a20746f207a65726f60901b6044820152606401610479565b6001600160a01b0383165f90815260036020526040902054818110156113125760405162461bcd60e51b815260206004820152600e60248201526d45524332303a2062616c616e636560901b6044820152606401610479565b6001600160a01b038085165f8181526003602052604080822086860390559286168082529083902080548601905591517fddf252ad1be2c89b69c2b068fc378daa952ba7f163c4a11628f55a4df523b3ef906113719086815260200190565b60405180910390a350505050565b5f60038211156113de5750805f6113976002836117fd565b6113a290600161183b565b90505b818110156113d8579050806002816113bd81866117fd565b6113c7919061183b565b6113d191906117fd565b90506113a5565b50919050565b81156113e8575060015b919050565b6001600160a01b0382166114365760405162461bcd60e51b815260206004820152601060248201526f45524332303a206d696e74207a65726f60801b6044820152606401610479565b8060025f828254611447919061183b565b90915550506001600160a01b0382165f818152600360209081526040808320805486019055518481527fddf252ad1be2c89b69c2b068fc378daa952ba7f163c4a11628f55a4df523b3ef910160405180910390a35050565b6001600160701b0382118015906114bd57506001600160701b038111155b6114fa5760405162461bcd60e51b815260206004820152600e60248201526d506169723a206f766572666c6f7760901b6044820152606401610479565b600780546001600160701b03838116600160701b9081026001600160e01b0319909316868316179290921792839055604080518483168152929093041660208201527f1c411e9a96e071241c2f21f7726b17ae89e3cab4c78be50e062b03a9fffbbad1910160405180910390a15050565b6001600160a01b0382165f90815260036020526040902054818110156115c15760405162461bcd60e51b815260206004820152600b60248201526a22a92199181d10313ab93760a91b6044820152606401610479565b6001600160a01b0383165f8181526003602090815260408083208686039055600280548790039055518581529192917fddf252ad1be2c89b69c2b068fc378daa952ba7f163c4a11628f55a4df523b3ef910160405180910390a3505050565b602081525f82518060208401528060208501604085015e5f604082850101526040601f19601f83011684010191505092915050565b80356001600160a01b03811681146113e8575f5ffd5b5f5f6040838503121561167c575f5ffd5b61168583611655565b946020939093013593505050565b5f5f5f606084860312156116a5575f5ffd5b6116ae84611655565b92506116bc60208501611655565b929592945050506040919091013590565b5f5f604083850312156116de575f5ffd5b6116e783611655565b91506116f560208401611655565b90509250929050565b5f6020828403121561170e575f5ffd5b61171782611655565b9392505050565b5f5f5f60608486031215611730575f5ffd5b833592506020840135915061174760408501611655565b90509250925092565b600181811c9082168061176457607f821691505b6020821081036113d857634e487b7160e01b5f52602260045260245ffd5b634e487b7160e01b5f52601160045260245ffd5b8181038181111561040957610409611782565b6020808252600c908201526b14185a5c8e881b1bd8dad95960a21b604082015260600190565b5f602082840312156117df575f5ffd5b5051919050565b808202811582820484141761040957610409611782565b5f8261181757634e487b7160e01b5f52601260045260245ffd5b500490565b5f6020828403121561182c575f5ffd5b81518015158114611717575f5ffd5b808201808211156104095761040961178256fea26469706673582212207c3d0808ac49983c4f76ca99ac5d066b87f9cf7fdd7177923eedbf6bdfc0722c64736f6c634300081c0033","linkReferences":{}},"methodIdentifiers":{"MINIMUM_LIQUIDITY()":"ba9a7a56","allowance(address,address)":"dd62ed3e","approve(address,uint256)":"095ea7b3","balanceOf(address)":"70a08231","burn(address)":"89afcb44","decimals()":"313ce567","factory()":"c45a0155","getReserves()":"0902f1ac","initialize(address,address)":"485cc955","mint(address)":"6a627842","name()":"06fdde03","swap(uint256,uint256,address)":"6d9a640a","symbol()":"95d89b41","token0()":"0dfe1681","token1()":"d21220a7","totalSupply()":"18160ddd","transfer(address,uint256)":"a9059cbb","transferFrom(address,address,uint256)":"23b872dd"},"id":21}