{"abi":[{"type":"constructor","inputs":[{"name":"_factory","type":"address","internalType":"address"}],"stateMutability":"nonpayable"},{"type":"function","name":"addLiquidity","inputs":[{"name":"tokenA","type":"address","internalType":"address"},{"name":"tokenB","type":"address","internalType":"address"},{"name":"amountA","type":"uint256","internalType":"uint256"},{"name":"amountB","type":"uint256","internalType":"uint256"},{"name":"to","type":"address","internalType":"address"}],"outputs":[{"name":"liquidity","type":"uint256","internalType":"uint256"}],"stateMutability":"nonpayable"},{"type":"function","name":"factory","inputs":[],"outputs":[{"name":"","type":"address","internalType":"contract Factory"}],"stateMutability":"view"},{"type":"function","name":"getAmountOut","inputs":[{"name":"amountIn","type":"uint256","internalType":"uint256"},{"name":"reserveIn","type":"uint256","internalType":"uint256"},{"name":"reserveOut","type":"uint256","internalType":"uint256"}],"outputs":[{"name":"","type":"uint256","internalType":"uint256"}],"stateMutability":"pure"},{"type":"function","name":"getAmountsOut","inputs":[{"name":"amountIn","type":"uint256","internalType":"uint256"},{"name":"path","type":"address[]","internalType":"address[]"}],"outputs":[{"name":"amounts","type":"uint256[]","internalType":"uint256[]"}],"stateMutability":"view"},{"type":"function","name":"swapExactTokensForTokens","inputs":[{"name":"amountIn","type":"uint256","internalType":"uint256"},{"name":"amountOutMin","type":"uint256","internalType":"uint256"},{"name":"path","type":"address[]","internalType":"address[]"},{"name":"to","type":"address","internalType":"address"},{"name":"deadline","type":"uint256","internalType":"uint256"}],"outputs":[{"name":"amounts","type":"uint256[]","internalType":"uint256[]"}],"stateMutability":"nonpayable"}],"bytecode":{"object":"0x60a060405234801561000f575f5ffd5b5060405161116f38038061116f83398101604081905261002e9161003f565b6001600160a01b031660805261006c565b5f6020828403121561004f575f5ffd5b81516001600160a01b0381168114610065575f5ffd5b9392505050565b6080516110d061009f5f395f818160b701528181610465015281816105050152818161089d0152610a2401526110d05ff3fe608060405234801561000f575f5ffd5b5060043610610055575f3560e01c8063054d50d41461005957806338ed17391461007f5780634b2fc7bb1461009f578063c45a0155146100b2578063d06ca61f146100f1575b5f5ffd5b61006c610067366004610d68565b610104565b6040519081526020015b60405180910390f35b61009261008d366004610df0565b6101f5565b6040516100769190610e5e565b61006c6100ad366004610ea0565b610429565b6100d97f000000000000000000000000000000000000000000000000000000000000000081565b6040516001600160a01b039091168152602001610076565b6100926100ff366004610efb565b61074e565b5f5f84116101595760405162461bcd60e51b815260206004820152601a60248201527f526f757465723a20696e73756666696369656e7420696e70757400000000000060448201526064015b60405180910390fd5b5f8311801561016757505f82115b6101aa5760405162461bcd60e51b8152602060048201526014602482015273526f757465723a206e6f206c697175696469747960601b6044820152606401610150565b5f6101b7856103e5610f57565b90505f6101c48483610f57565b90505f826101d4876103e8610f57565b6101de9190610f6e565b90506101ea8183610f81565b979650505050505050565b6060818042111561023a5760405162461bcd60e51b815260206004820152600f60248201526e149bdd5d195c8e88195e1c1a5c9959608a1b6044820152606401610150565b61024588878761074e565b91508682600184516102579190610fa0565b8151811061026757610267610fb3565b602002602001015110156102b05760405162461bcd60e51b815260206004820152601060248201526f526f757465723a20736c69707061676560801b6044820152606401610150565b5f61030887875f8181106102c6576102c6610fb3565b90506020020160208101906102db9190610fc7565b888860018181106102ee576102ee610fb3565b90506020020160208101906103039190610fc7565b6109ea565b905086865f81811061031c5761031c610fb3565b90506020020160208101906103319190610fc7565b6001600160a01b03166323b872dd3383865f8151811061035357610353610fb3565b60209081029190910101516040516001600160e01b031960e086901b1681526001600160a01b03938416600482015292909116602483015260448201526064016020604051808303815f875af11580156103af573d5f5f3e3d5ffd5b505050506040513d601f19601f820116820180604052508101906103d39190610fe9565b6104115760405162461bcd60e51b815260206004820152600f60248201526e2937baba32b91d10383ab6361034b760891b6044820152606401610150565b61041d83888888610a9a565b50509695505050505050565b5f5f5f6104368888610c32565b60405163e6a4390560e01b81526001600160a01b03808416600483015280831660248301529294509092505f917f0000000000000000000000000000000000000000000000000000000000000000169063e6a4390590604401602060405180830381865afa1580156104aa573d5f5f3e3d5ffd5b505050506040513d601f19601f820116820180604052508101906104ce9190611008565b90506001600160a01b038116610572576040516364e329cb60e11b81526001600160a01b038a8116600483015289811660248301527f0000000000000000000000000000000000000000000000000000000000000000169063c9c65396906044016020604051808303815f875af115801561054b573d5f5f3e3d5ffd5b505050506040513d601f19601f8201168201806040525081019061056f9190611008565b90505b6040516323b872dd60e01b81523360048201526001600160a01b038281166024830152604482018990528a16906323b872dd906064016020604051808303815f875af11580156105c4573d5f5f3e3d5ffd5b505050506040513d601f19601f820116820180604052508101906105e89190610fe9565b6106255760405162461bcd60e51b815260206004820152600e60248201526d526f757465723a2070756c6c204160901b6044820152606401610150565b6040516323b872dd60e01b81523360048201526001600160a01b038281166024830152604482018890528916906323b872dd906064016020604051808303815f875af1158015610677573d5f5f3e3d5ffd5b505050506040513d601f19601f8201168201806040525081019061069b9190610fe9565b6106d85760405162461bcd60e51b815260206004820152600e60248201526d2937baba32b91d10383ab636102160911b6044820152606401610150565b6040516335313c2160e11b81526001600160a01b038681166004830152821690636a627842906024016020604051808303815f875af115801561071d573d5f5f3e3d5ffd5b505050506040513d601f19601f820116820180604052508101906107419190611023565b9998505050505050505050565b606060028210156107945760405162461bcd60e51b815260206004820152601060248201526f0a4deeae8cae47440c4c2c840e0c2e8d60831b6044820152606401610150565b8167ffffffffffffffff8111156107ad576107ad61103a565b6040519080825280602002602001820160405280156107d6578160200160208202803683370190505b50905083815f815181106107ec576107ec610fb3565b6020026020010181815250505f5b610805600184610fa0565b8110156109e2575f5f61086e86868581811061082357610823610fb3565b90506020020160208101906108389190610fc7565b8787610845876001610f6e565b81811061085457610854610fb3565b90506020020160208101906108699190610fc7565b610c32565b60405163e6a4390560e01b81526001600160a01b03808416600483015280831660248301529294509092505f917f0000000000000000000000000000000000000000000000000000000000000000169063e6a4390590604401602060405180830381865afa1580156108e2573d5f5f3e3d5ffd5b505050506040513d601f19601f820116820180604052508101906109069190611008565b90506001600160a01b0381166109505760405162461bcd60e51b815260206004820152600f60248201526e2937baba32b91d103737903830b4b960891b6044820152606401610150565b5f5f610982838a8a8981811061096857610968610fb3565b905060200201602081019061097d9190610fc7565b610c62565b915091506109aa87878151811061099b5761099b610fb3565b60200260200101518383610104565b876109b6886001610f6e565b815181106109c6576109c6610fb3565b60209081029190910101525050600190930192506107fa915050565b509392505050565b5f5f5f6109f78585610c32565b60405163e6a4390560e01b81526001600160a01b03808416600483015280831660248301529294509092507f00000000000000000000000000000000000000000000000000000000000000009091169063e6a4390590604401602060405180830381865afa158015610a6b573d5f5f3e3d5ffd5b505050506040513d601f19601f82011682018060405250810190610a8f9190611008565b925050505b92915050565b5f5b610aa7600184610fa0565b811015610c2b575f848483818110610ac157610ac1610fb3565b9050602002016020810190610ad69190610fc7565b90505f8585610ae6856001610f6e565b818110610af557610af5610fb3565b9050602002016020810190610b0a9190610fc7565b90505f610b178383610c32565b5090505f88610b27866001610f6e565b81518110610b3757610b37610fb3565b602002602001015190505f5f836001600160a01b0316866001600160a01b031614610b6357825f610b66565b5f835b915091505f610b7587876109ea565b90505f610b8360028c610fa0565b8910610b8f5789610baf565b610baf878d8d610ba08d6002610f6e565b8181106102ee576102ee610fb3565b6040516336cd320560e11b815260048101869052602481018590526001600160a01b03808316604483015291925090831690636d9a640a906064015f604051808303815f87803b158015610c01575f5ffd5b505af1158015610c13573d5f5f3e3d5ffd5b50506001909a019950610a9c98505050505050505050565b5050505050565b5f5f826001600160a01b0316846001600160a01b031610610c54578284610c57565b83835b909590945092505050565b5f5f5f5f856001600160a01b0316630902f1ac6040518163ffffffff1660e01b81526004016040805180830381865afa158015610ca1573d5f5f3e3d5ffd5b505050506040513d601f19601f82011682018060405250810190610cc59190611069565b915091505f866001600160a01b0316630dfe16816040518163ffffffff1660e01b8152600401602060405180830381865afa158015610d06573d5f5f3e3d5ffd5b505050506040513d601f19601f82011682018060405250810190610d2a9190611008565b9050806001600160a01b0316866001600160a01b031614610d4c578183610d4f565b82825b6001600160701b03918216999116975095505050505050565b5f5f5f60608486031215610d7a575f5ffd5b505081359360208301359350604090920135919050565b5f5f83601f840112610da1575f5ffd5b50813567ffffffffffffffff811115610db8575f5ffd5b6020830191508360208260051b8501011115610dd2575f5ffd5b9250929050565b6001600160a01b0381168114610ded575f5ffd5b50565b5f5f5f5f5f5f60a08789031215610e05575f5ffd5b8635955060208701359450604087013567ffffffffffffffff811115610e29575f5ffd5b610e3589828a01610d91565b9095509350506060870135610e4981610dd9565b95989497509295919493608090920135925050565b602080825282518282018190525f918401906040840190835b81811015610e95578351835260209384019390920191600101610e77565b509095945050505050565b5f5f5f5f5f60a08688031215610eb4575f5ffd5b8535610ebf81610dd9565b94506020860135610ecf81610dd9565b935060408601359250606086013591506080860135610eed81610dd9565b809150509295509295909350565b5f5f5f60408486031215610f0d575f5ffd5b83359250602084013567ffffffffffffffff811115610f2a575f5ffd5b610f3686828701610d91565b9497909650939450505050565b634e487b7160e01b5f52601160045260245ffd5b8082028115828204841417610a9457610a94610f43565b80820180821115610a9457610a94610f43565b5f82610f9b57634e487b7160e01b5f52601260045260245ffd5b500490565b81810381811115610a9457610a94610f43565b634e487b7160e01b5f52603260045260245ffd5b5f60208284031215610fd7575f5ffd5b8135610fe281610dd9565b9392505050565b5f60208284031215610ff9575f5ffd5b81518015158114610fe2575f5ffd5b5f60208284031215611018575f5ffd5b8151610fe281610dd9565b5f60208284031215611033575f5ffd5b5051919050565b634e487b7160e01b5f52604160045260245ffd5b80516001600160701b0381168114611064575f5ffd5b919050565b5f5f6040838503121561107a575f5ffd5b6110838361104e565b91506110916020840161104e565b9050925092905056fea2646970667358221220a639e70cf62af1ffe78fd052788f6917cee25f14f7661e23fde223f2b65619b064736f6c634300081c0033","linkReferences":{}},"methodIdentifiers":{"addLiquidity(address,address,uint256,uint256,address)":"4b2fc7bb","factory()":"c45a0155","getAmountOut(uint256,uint256,uint256)":"054d50d4","getAmountsOut(uint256,address[])":"d06ca61f","swapExactTokensForTokens(uint256,uint256,address[],address,uint256)":"38ed1739"},"id":22}